{
  "_format": "hh-sol-artifact-1",
  "contractName": "MidnightOwl",
  "sourceName": "src/backend/contracts/main_contract.sol",
  "abi": [
    {
      "inputs": [
        {
          "internalType": "address",
          "name": "_artist",
          "type": "address"
        },
        {
          "internalType": "uint256",
          "name": "_royaltyFee",
          "type": "uint256"
        },
        {
          "internalType": "uint256[]",
          "name": "_prices",
          "type": "uint256[]"
        }
      ],
      "stateMutability": "payable",
      "type": "constructor"
    },
    {
      "anonymous": false,
      "inputs": [
        {
          "indexed": true,
          "internalType": "address",
          "name": "owner",
          "type": "address"
        },
        {
          "indexed": true,
          "internalType": "address",
          "name": "approved",
          "type": "address"
        },
        {
          "indexed": true,
          "internalType": "uint256",
          "name": "tokenId",
          "type": "uint256"
        }
      ],
      "name": "Approval",
      "type": "event"
    },
    {
      "anonymous": false,
      "inputs": [
        {
          "indexed": true,
          "internalType": "address",
          "name": "owner",
          "type": "address"
        },
        {
          "indexed": true,
          "internalType": "address",
          "name": "operator",
          "type": "address"
        },
        {
          "indexed": false,
          "internalType": "bool",
          "name": "approved",
          "type": "bool"
        }
      ],
      "name": "ApprovalForAll",
      "type": "event"
    },
    {
      "anonymous": false,
      "inputs": [
        {
          "indexed": true,
          "internalType": "uint256",
          "name": "tokenId",
          "type": "uint256"
        },
        {
          "indexed": true,
          "internalType": "address",
          "name": "seller",
          "type": "address"
        },
        {
          "indexed": false,
          "internalType": "address",
          "name": "buyer",
          "type": "address"
        },
        {
          "indexed": false,
          "internalType": "uint256",
          "name": "price",
          "type": "uint256"
        }
      ],
      "name": "MarketItemBought",
      "type": "event"
    },
    {
      "anonymous": false,
      "inputs": [
        {
          "indexed": true,
          "internalType": "uint256",
          "name": "tokenId",
          "type": "uint256"
        },
        {
          "indexed": true,
          "internalType": "address",
          "name": "seller",
          "type": "address"
        },
        {
          "indexed": false,
          "internalType": "uint256",
          "name": "price",
          "type": "uint256"
        }
      ],
      "name": "MarketItemRelisted",
      "type": "event"
    },
    {
      "anonymous": false,
      "inputs": [
        {
          "indexed": true,
          "internalType": "address",
          "name": "previousOwner",
          "type": "address"
        },
        {
          "indexed": true,
          "internalType": "address",
          "name": "newOwner",
          "type": "address"
        }
      ],
      "name": "OwnershipTransferred",
      "type": "event"
    },
    {
      "anonymous": false,
      "inputs": [
        {
          "indexed": true,
          "internalType": "address",
          "name": "from",
          "type": "address"
        },
        {
          "indexed": true,
          "internalType": "address",
          "name": "to",
          "type": "address"
        },
        {
          "indexed": true,
          "internalType": "uint256",
          "name": "tokenId",
          "type": "uint256"
        }
      ],
      "name": "Transfer",
      "type": "event"
    },
    {
      "inputs": [
        {
          "internalType": "address",
          "name": "to",
          "type": "address"
        },
        {
          "internalType": "uint256",
          "name": "tokenId",
          "type": "uint256"
        }
      ],
      "name": "approve",
      "outputs": [],
      "stateMutability": "nonpayable",
      "type": "function"
    },
    {
      "inputs": [],
      "name": "artist",
      "outputs": [
        {
          "internalType": "address",
          "name": "",
          "type": "address"
        }
      ],
      "stateMutability": "view",
      "type": "function"
    },
    {
      "inputs": [
        {
          "internalType": "address",
          "name": "owner",
          "type": "address"
        }
      ],
      "name": "balanceOf",
      "outputs": [
        {
          "internalType": "uint256",
          "name": "",
          "type": "uint256"
        }
      ],
      "stateMutability": "view",
      "type": "function"
    },
    {
      "inputs": [],
      "name": "baseExtension",
      "outputs": [
        {
          "internalType": "string",
          "name": "",
          "type": "string"
        }
      ],
      "stateMutability": "view",
      "type": "function"
    },
    {
      "inputs": [
        {
          "internalType": "uint256",
          "name": "_tokenId",
          "type": "uint256"
        }
      ],
      "name": "buyToken",
      "outputs": [],
      "stateMutability": "payable",
      "type": "function"
    },
    {
      "inputs": [],
      "name": "getAllUnsoldTokens",
      "outputs": [
        {
          "components": [
            {
              "internalType": "uint256",
              "name": "tokenId",
              "type": "uint256"
            },
            {
              "internalType": "address payable",
              "name": "seller",
              "type": "address"
            },
            {
              "internalType": "uint256",
              "name": "price",
              "type": "uint256"
            }
          ],
          "internalType": "struct MidnightOwl.MarketItem[]",
          "name": "",
          "type": "tuple[]"
        }
      ],
      "stateMutability": "view",
      "type": "function"
    },
    {
      "inputs": [
        {
          "internalType": "uint256",
          "name": "tokenId",
          "type": "uint256"
        }
      ],
      "name": "getApproved",
      "outputs": [
        {
          "internalType": "address",
          "name": "",
          "type": "address"
        }
      ],
      "stateMutability": "view",
      "type": "function"
    },
    {
      "inputs": [],
      "name": "getMyTokens",
      "outputs": [
        {
          "components": [
            {
              "internalType": "uint256",
              "name": "tokenId",
              "type": "uint256"
            },
            {
              "internalType": "address payable",
              "name": "seller",
              "type": "address"
            },
            {
              "internalType": "uint256",
              "name": "price",
              "type": "uint256"
            }
          ],
          "internalType": "struct MidnightOwl.MarketItem[]",
          "name": "",
          "type": "tuple[]"
        }
      ],
      "stateMutability": "view",
      "type": "function"
    },
    {
      "inputs": [
        {
          "internalType": "address",
          "name": "owner",
          "type": "address"
        },
        {
          "internalType": "address",
          "name": "operator",
          "type": "address"
        }
      ],
      "name": "isApprovedForAll",
      "outputs": [
        {
          "internalType": "bool",
          "name": "",
          "type": "bool"
        }
      ],
      "stateMutability": "view",
      "type": "function"
    },
    {
      "inputs": [
        {
          "internalType": "uint256",
          "name": "",
          "type": "uint256"
        }
      ],
      "name": "marketItems",
      "outputs": [
        {
          "internalType": "uint256",
          "name": "tokenId",
          "type": "uint256"
        },
        {
          "internalType": "address payable",
          "name": "seller",
          "type": "address"
        },
        {
          "internalType": "uint256",
          "name": "price",
          "type": "uint256"
        }
      ],
      "stateMutability": "view",
      "type": "function"
    },
    {
      "inputs": [],
      "name": "metadataURI",
      "outputs": [
        {
          "internalType": "string",
          "name": "",
          "type": "string"
        }
      ],
      "stateMutability": "view",
      "type": "function"
    },
    {
      "inputs": [],
      "name": "name",
      "outputs": [
        {
          "internalType": "string",
          "name": "",
          "type": "string"
        }
      ],
      "stateMutability": "view",
      "type": "function"
    },
    {
      "inputs": [],
      "name": "owner",
      "outputs": [
        {
          "internalType": "address",
          "name": "",
          "type": "address"
        }
      ],
      "stateMutability": "view",
      "type": "function"
    },
    {
      "inputs": [
        {
          "internalType": "uint256",
          "name": "tokenId",
          "type": "uint256"
        }
      ],
      "name": "ownerOf",
      "outputs": [
        {
          "internalType": "address",
          "name": "",
          "type": "address"
        }
      ],
      "stateMutability": "view",
      "type": "function"
    },
    {
      "inputs": [
        {
          "internalType": "uint256",
          "name": "_tokenId",
          "type": "uint256"
        },
        {
          "internalType": "uint256",
          "name": "_price",
          "type": "uint256"
        }
      ],
      "name": "relistToken",
      "outputs": [],
      "stateMutability": "payable",
      "type": "function"
    },
    {
      "inputs": [],
      "name": "renounceOwnership",
      "outputs": [],
      "stateMutability": "nonpayable",
      "type": "function"
    },
    {
      "inputs": [],
      "name": "royaltyFee",
      "outputs": [
        {
          "internalType": "uint256",
          "name": "",
          "type": "uint256"
        }
      ],
      "stateMutability": "view",
      "type": "function"
    },
    {
      "inputs": [
        {
          "internalType": "address",
          "name": "from",
          "type": "address"
        },
        {
          "internalType": "address",
          "name": "to",
          "type": "address"
        },
        {
          "internalType": "uint256",
          "name": "tokenId",
          "type": "uint256"
        }
      ],
      "name": "safeTransferFrom",
      "outputs": [],
      "stateMutability": "nonpayable",
      "type": "function"
    },
    {
      "inputs": [
        {
          "internalType": "address",
          "name": "from",
          "type": "address"
        },
        {
          "internalType": "address",
          "name": "to",
          "type": "address"
        },
        {
          "internalType": "uint256",
          "name": "tokenId",
          "type": "uint256"
        },
        {
          "internalType": "bytes",
          "name": "data",
          "type": "bytes"
        }
      ],
      "name": "safeTransferFrom",
      "outputs": [],
      "stateMutability": "nonpayable",
      "type": "function"
    },
    {
      "inputs": [
        {
          "internalType": "address",
          "name": "operator",
          "type": "address"
        },
        {
          "internalType": "bool",
          "name": "approved",
          "type": "bool"
        }
      ],
      "name": "setApprovalForAll",
      "outputs": [],
      "stateMutability": "nonpayable",
      "type": "function"
    },
    {
      "inputs": [
        {
          "internalType": "bytes4",
          "name": "interfaceId",
          "type": "bytes4"
        }
      ],
      "name": "supportsInterface",
      "outputs": [
        {
          "internalType": "bool",
          "name": "",
          "type": "bool"
        }
      ],
      "stateMutability": "view",
      "type": "function"
    },
    {
      "inputs": [],
      "name": "symbol",
      "outputs": [
        {
          "internalType": "string",
          "name": "",
          "type": "string"
        }
      ],
      "stateMutability": "view",
      "type": "function"
    },
    {
      "inputs": [
        {
          "internalType": "uint256",
          "name": "tokenId",
          "type": "uint256"
        }
      ],
      "name": "tokenURI",
      "outputs": [
        {
          "internalType": "string",
          "name": "",
          "type": "string"
        }
      ],
      "stateMutability": "view",
      "type": "function"
    },
    {
      "inputs": [
        {
          "internalType": "address",
          "name": "from",
          "type": "address"
        },
        {
          "internalType": "address",
          "name": "to",
          "type": "address"
        },
        {
          "internalType": "uint256",
          "name": "tokenId",
          "type": "uint256"
        }
      ],
      "name": "transferFrom",
      "outputs": [],
      "stateMutability": "nonpayable",
      "type": "function"
    },
    {
      "inputs": [
        {
          "internalType": "address",
          "name": "newOwner",
          "type": "address"
        }
      ],
      "name": "transferOwnership",
      "outputs": [],
      "stateMutability": "nonpayable",
      "type": "function"
    },
    {
      "inputs": [
        {
          "internalType": "uint256",
          "name": "_royaltyFee",
          "type": "uint256"
        }
      ],
      "name": "updateRoyaltyFee",
      "outputs": [],
      "stateMutability": "nonpayable",
      "type": "function"
    }
  ],
  "bytecode": "0x6080604052604051806080016040528060598152602001620045886059913960079080519060200190620000359291906200077b565b506040518060400160405280600581526020017f2e6a736f6e00000000000000000000000000000000000000000000000000000081525060089080519060200190620000839291906200077b565b50604051620045e1380380620045e18339818101604052810190620000a99190620008fb565b6040518060400160405280600b81526020017f4d69646e696768744f776c0000000000000000000000000000000000000000008152506040518060400160405280600481526020017f4d4f574c0000000000000000000000000000000000000000000000000000000081525081600090805190602001906200012d9291906200077b565b508060019080519060200190620001469291906200077b565b505050620001696200015d620003d460201b60201c565b620003dc60201b60201c565b3482825162000179919062000af7565b1115620001bd576040517f08c379a0000000000000000000000000000000000000000000000000000000008152600401620001b49062000a28565b60405180910390fd5b81600a8190555082600960006101000a81548173ffffffffffffffffffffffffffffffffffffffff021916908373ffffffffffffffffffffffffffffffffffffffff16021790555060005b81518160ff161015620003ca576000828260ff168151811062000254577f4e487b7100000000000000000000000000000000000000000000000000000000600052603260045260246000fd5b6020026020010151116200029f576040517f08c379a0000000000000000000000000000000000000000000000000000000008152600401620002969062000a6c565b60405180910390fd5b620002b4308260ff16620004a260201b60201c565b600b60405180606001604052808360ff1681526020013373ffffffffffffffffffffffffffffffffffffffff168152602001848460ff168151811062000323577f4e487b7100000000000000000000000000000000000000000000000000000000600052603260045260246000fd5b602002602001015181525090806001815401808255809150506001900390600052602060002090600302016000909190919091506000820151816000015560208201518160010160006101000a81548173ffffffffffffffffffffffffffffffffffffffff021916908373ffffffffffffffffffffffffffffffffffffffff1602179055506040820151816002015550508080620003c19062000c0f565b91505062000208565b5050505062000dda565b600033905090565b6000600660009054906101000a900473ffffffffffffffffffffffffffffffffffffffff16905081600660006101000a81548173ffffffffffffffffffffffffffffffffffffffff021916908373ffffffffffffffffffffffffffffffffffffffff1602179055508173ffffffffffffffffffffffffffffffffffffffff168173ffffffffffffffffffffffffffffffffffffffff167f8be0079c531659141344cd1fd0a4f28419497f9722a3daafe3b4186f6b6457e060405160405180910390a35050565b600073ffffffffffffffffffffffffffffffffffffffff168273ffffffffffffffffffffffffffffffffffffffff16141562000515576040517f08c379a00000000000000000000000000000000000000000000000000000000081526004016200050c9062000a4a565b60405180910390fd5b6200052681620006e960201b60201c565b1562000569576040517f08c379a0000000000000000000000000000000000000000000000000000000008152600401620005609062000a06565b60405180910390fd5b6200057f6000838360016200073260201b60201c565b6200059081620006e960201b60201c565b15620005d3576040517f08c379a0000000000000000000000000000000000000000000000000000000008152600401620005ca9062000a06565b60405180910390fd5b6001600360008473ffffffffffffffffffffffffffffffffffffffff1673ffffffffffffffffffffffffffffffffffffffff16815260200190815260200160002060008282540192505081905550816002600083815260200190815260200160002060006101000a81548173ffffffffffffffffffffffffffffffffffffffff021916908373ffffffffffffffffffffffffffffffffffffffff160217905550808273ffffffffffffffffffffffffffffffffffffffff16600073ffffffffffffffffffffffffffffffffffffffff167fddf252ad1be2c89b69c2b068fc378daa952ba7f163c4a11628f55a4df523b3ef60405160405180910390a4620006e56000838360016200073860201b60201c565b5050565b60008073ffffffffffffffffffffffffffffffffffffffff1662000713836200073e60201b60201c565b73ffffffffffffffffffffffffffffffffffffffff1614159050919050565b50505050565b50505050565b60006002600083815260200190815260200160002060009054906101000a900473ffffffffffffffffffffffffffffffffffffffff169050919050565b828054620007899062000ba3565b90600052602060002090601f016020900481019282620007ad5760008555620007f9565b82601f10620007c857805160ff1916838001178555620007f9565b82800160010185558215620007f9579182015b82811115620007f8578251825591602001919060010190620007db565b5b5090506200080891906200080c565b5090565b5b80821115620008275760008160009055506001016200080d565b5090565b6000620008426200083c8462000ab7565b62000a8e565b905080838252602082019050828560208602820111156200086257600080fd5b60005b858110156200089657816200087b8882620008e4565b84526020840193506020830192505060018101905062000865565b5050509392505050565b600081519050620008b18162000da6565b92915050565b600082601f830112620008c957600080fd5b8151620008db8482602086016200082b565b91505092915050565b600081519050620008f58162000dc0565b92915050565b6000806000606084860312156200091157600080fd5b60006200092186828701620008a0565b93505060206200093486828701620008e4565b925050604084015167ffffffffffffffff8111156200095257600080fd5b6200096086828701620008b7565b9150509250925092565b600062000979601c8362000ae6565b9150620009868262000cdc565b602082019050919050565b6000620009a060348362000ae6565b9150620009ad8262000d05565b604082019050919050565b6000620009c760208362000ae6565b9150620009d48262000d54565b602082019050919050565b6000620009ee601c8362000ae6565b9150620009fb8262000d7d565b602082019050919050565b6000602082019050818103600083015262000a21816200096a565b9050919050565b6000602082019050818103600083015262000a438162000991565b9050919050565b6000602082019050818103600083015262000a6581620009b8565b9050919050565b6000602082019050818103600083015262000a8781620009df565b9050919050565b600062000a9a62000aad565b905062000aa8828262000bd9565b919050565b6000604051905090565b600067ffffffffffffffff82111562000ad55762000ad462000c9c565b5b602082029050602081019050919050565b600082825260208201905092915050565b600062000b048262000b8c565b915062000b118362000b8c565b9250817fffffffffffffffffffffffffffffffffffffffffffffffffffffffffffffffff048311821515161562000b4d5762000b4c62000c3e565b5b828202905092915050565b600062000b658262000b6c565b9050919050565b600073ffffffffffffffffffffffffffffffffffffffff82169050919050565b6000819050919050565b600060ff82169050919050565b6000600282049050600182168062000bbc57607f821691505b6020821081141562000bd35762000bd262000c6d565b5b50919050565b62000be48262000ccb565b810181811067ffffffffffffffff8211171562000c065762000c0562000c9c565b5b80604052505050565b600062000c1c8262000b96565b915060ff82141562000c335762000c3262000c3e565b5b600182019050919050565b7f4e487b7100000000000000000000000000000000000000000000000000000000600052601160045260246000fd5b7f4e487b7100000000000000000000000000000000000000000000000000000000600052602260045260246000fd5b7f4e487b7100000000000000000000000000000000000000000000000000000000600052604160045260246000fd5b6000601f19601f8301169050919050565b7f4552433732313a20746f6b656e20616c7265616479206d696e74656400000000600082015250565b7f6465706c6f796572206d7573742070617920726f79616c74792066656520666f60008201527f72206561636820746f6b656e206c697374656420000000000000000000000000602082015250565b7f4552433732313a206d696e7420746f20746865207a65726f2061646472657373600082015250565b7f5072696365206d7573742062652067726561746572207468616e203000000000600082015250565b62000db18162000b58565b811462000dbd57600080fd5b50565b62000dcb8162000b8c565b811462000dd757600080fd5b50565b61379e8062000dea6000396000f3fe6080604052600436106101815760003560e01c80636352211e116100d1578063a22cb4651161008a578063c668286211610064578063c668286214610556578063c87b56dd14610581578063e985e9c5146105be578063f2fde38b146105fb57610181565b8063a22cb465146104d9578063b88d4fde14610502578063b8997a971461052b57610181565b80636352211e146103c757806370a0823114610404578063715018a614610441578063767dd076146104585780638da5cb5b1461048357806395d89b41146104ae57610181565b80632d296bf11161013e5780634e83be47116101185780634e83be471461031857806351f28e14146103415780635b3b136a146103805780635e6b3c18146103ab57610181565b80632d296bf1146102a857806342842e0e146102c457806343bc1612146102ed57610181565b806301ffc9a71461018657806303ee438c146101c357806306fdde03146101ee578063081812fc14610219578063095ea7b31461025657806323b872dd1461027f575b600080fd5b34801561019257600080fd5b506101ad60048036038101906101a891906128f3565b610624565b6040516101ba9190612e1f565b60405180910390f35b3480156101cf57600080fd5b506101d8610706565b6040516101e59190612e3a565b60405180910390f35b3480156101fa57600080fd5b50610203610794565b6040516102109190612e3a565b60405180910390f35b34801561022557600080fd5b50610240600480360381019061023b9190612945565b610826565b60405161024d9190612d6d565b60405180910390f35b34801561026257600080fd5b5061027d600480360381019061027891906128b7565b61086c565b005b34801561028b57600080fd5b506102a660048036038101906102a191906127b1565b610984565b005b6102c260048036038101906102bd9190612945565b6109e4565b005b3480156102d057600080fd5b506102eb60048036038101906102e691906127b1565b610c84565b005b3480156102f957600080fd5b50610302610ca4565b60405161030f9190612d6d565b60405180910390f35b34801561032457600080fd5b5061033f600480360381019061033a9190612945565b610cca565b005b34801561034d57600080fd5b5061036860048036038101906103639190612945565b610cdc565b60405161037793929190613037565b60405180910390f35b34801561038c57600080fd5b50610395610d36565b6040516103a29190612dfd565b60405180910390f35b6103c560048036038101906103c0919061296e565b610f3d565b005b3480156103d357600080fd5b506103ee60048036038101906103e99190612945565b6110fc565b6040516103fb9190612d6d565b60405180910390f35b34801561041057600080fd5b5061042b6004803603810190610426919061274c565b611183565b604051610438919061301c565b60405180910390f35b34801561044d57600080fd5b5061045661123b565b005b34801561046457600080fd5b5061046d61124f565b60405161047a9190612dfd565b60405180910390f35b34801561048f57600080fd5b506104986114b9565b6040516104a59190612d6d565b60405180910390f35b3480156104ba57600080fd5b506104c36114e3565b6040516104d09190612e3a565b60405180910390f35b3480156104e557600080fd5b5061050060048036038101906104fb919061287b565b611575565b005b34801561050e57600080fd5b5061052960048036038101906105249190612800565b61158b565b005b34801561053757600080fd5b506105406115ed565b60405161054d919061301c565b60405180910390f35b34801561056257600080fd5b5061056b6115f3565b6040516105789190612e3a565b60405180910390f35b34801561058d57600080fd5b506105a860048036038101906105a39190612945565b611681565b6040516105b59190612e3a565b60405180910390f35b3480156105ca57600080fd5b506105e560048036038101906105e09190612775565b6116e9565b6040516105f29190612e1f565b60405180910390f35b34801561060757600080fd5b50610622600480360381019061061d919061274c565b61177d565b005b60007f80ac58cd000000000000000000000000000000000000000000000000000000007bffffffffffffffffffffffffffffffffffffffffffffffffffffffff1916827bffffffffffffffffffffffffffffffffffffffffffffffffffffffff191614806106ef57507f5b5e139f000000000000000000000000000000000000000000000000000000007bffffffffffffffffffffffffffffffffffffffffffffffffffffffff1916827bffffffffffffffffffffffffffffffffffffffffffffffffffffffff1916145b806106ff57506106fe82611801565b5b9050919050565b6007805461071390613208565b80601f016020809104026020016040519081016040528092919081815260200182805461073f90613208565b801561078c5780601f106107615761010080835404028352916020019161078c565b820191906000526020600020905b81548152906001019060200180831161076f57829003601f168201915b505050505081565b6060600080546107a390613208565b80601f01602080910402602001604051908101604052809291908181526020018280546107cf90613208565b801561081c5780601f106107f15761010080835404028352916020019161081c565b820191906000526020600020905b8154815290600101906020018083116107ff57829003601f168201915b5050505050905090565b60006108318261186b565b6004600083815260200190815260200160002060009054906101000a900473ffffffffffffffffffffffffffffffffffffffff169050919050565b6000610877826110fc565b90508073ffffffffffffffffffffffffffffffffffffffff168373ffffffffffffffffffffffffffffffffffffffff1614156108e8576040517f08c379a00000000000000000000000000000000000000000000000000000000081526004016108df90612fdc565b60405180910390fd5b8073ffffffffffffffffffffffffffffffffffffffff166109076118b6565b73ffffffffffffffffffffffffffffffffffffffff1614806109365750610935816109306118b6565b6116e9565b5b610975576040517f08c379a000000000000000000000000000000000000000000000000000000000815260040161096c90612ffc565b60405180910390fd5b61097f83836118be565b505050565b61099561098f6118b6565b82611977565b6109d4576040517f08c379a00000000000000000000000000000000000000000000000000000000081526004016109cb90612e5c565b60405180910390fd5b6109df838383611a0c565b505050565b6000600b8281548110610a20577f4e487b7100000000000000000000000000000000000000000000000000000000600052603260045260246000fd5b90600052602060002090600302016002015490506000600b8381548110610a70577f4e487b7100000000000000000000000000000000000000000000000000000000600052603260045260246000fd5b906000526020600020906003020160010160009054906101000a900473ffffffffffffffffffffffffffffffffffffffff169050813414610ae6576040517f08c379a0000000000000000000000000000000000000000000000000000000008152600401610add90612f7c565b60405180910390fd5b6000600b8481548110610b22577f4e487b7100000000000000000000000000000000000000000000000000000000600052603260045260246000fd5b906000526020600020906003020160010160006101000a81548173ffffffffffffffffffffffffffffffffffffffff021916908373ffffffffffffffffffffffffffffffffffffffff160217905550610b7c303385611a0c565b600960009054906101000a900473ffffffffffffffffffffffffffffffffffffffff1673ffffffffffffffffffffffffffffffffffffffff166108fc600a549081150290604051600060405180830381858888f19350505050158015610be6573d6000803e3d6000fd5b508073ffffffffffffffffffffffffffffffffffffffff166108fc349081150290604051600060405180830381858888f19350505050158015610c2d573d6000803e3d6000fd5b508073ffffffffffffffffffffffffffffffffffffffff16837fd356b8423ef89ccba8e4f1dbeccc60b41825fd97d432f2e6a6dbd11ae6ecec113385604051610c77929190612dd4565b60405180910390a3505050565b610c9f8383836040518060200160405280600081525061158b565b505050565b600960009054906101000a900473ffffffffffffffffffffffffffffffffffffffff1681565b610cd2611d06565b80600a8190555050565b600b8181548110610cec57600080fd5b90600052602060002090600302016000915090508060000154908060010160009054906101000a900473ffffffffffffffffffffffffffffffffffffffff16908060020154905083565b6060600080610d4433611183565b905060008167ffffffffffffffff811115610d88577f4e487b7100000000000000000000000000000000000000000000000000000000600052604160045260246000fd5b604051908082528060200260200182016040528015610dc157816020015b610dae612644565b815260200190600190039081610da65790505b50905060005b600b80549050811015610f33573373ffffffffffffffffffffffffffffffffffffffff16610df4826110fc565b73ffffffffffffffffffffffffffffffffffffffff161415610f2057600b8181548110610e4a577f4e487b7100000000000000000000000000000000000000000000000000000000600052603260045260246000fd5b9060005260206000209060030201604051806060016040529081600082015481526020016001820160009054906101000a900473ffffffffffffffffffffffffffffffffffffffff1673ffffffffffffffffffffffffffffffffffffffff1673ffffffffffffffffffffffffffffffffffffffff168152602001600282015481525050828581518110610f06577f4e487b7100000000000000000000000000000000000000000000000000000000600052603260045260246000fd5b60200260200101819052508380610f1c9061326b565b9450505b8080610f2b9061326b565b915050610dc7565b5080935050505090565b600a543414610f81576040517f08c379a0000000000000000000000000000000000000000000000000000000008152600401610f7890612efc565b60405180910390fd5b60008111610fc4576040517f08c379a0000000000000000000000000000000000000000000000000000000008152600401610fbb90612e7c565b60405180910390fd5b80600b8381548110610fff577f4e487b7100000000000000000000000000000000000000000000000000000000600052603260045260246000fd5b90600052602060002090600302016002018190555033600b838154811061104f577f4e487b7100000000000000000000000000000000000000000000000000000000600052603260045260246000fd5b906000526020600020906003020160010160006101000a81548173ffffffffffffffffffffffffffffffffffffffff021916908373ffffffffffffffffffffffffffffffffffffffff1602179055506110a9333084611a0c565b3373ffffffffffffffffffffffffffffffffffffffff16827fb2ba12d2566848b13548a3741edb565b69d3cbce7796959cd67431610207eb13836040516110f0919061301c565b60405180910390a35050565b60008061110883611d84565b9050600073ffffffffffffffffffffffffffffffffffffffff168173ffffffffffffffffffffffffffffffffffffffff16141561117a576040517f08c379a000000000000000000000000000000000000000000000000000000000815260040161117190612fbc565b60405180910390fd5b80915050919050565b60008073ffffffffffffffffffffffffffffffffffffffff168273ffffffffffffffffffffffffffffffffffffffff1614156111f4576040517f08c379a00000000000000000000000000000000000000000000000000000000081526004016111eb90612f5c565b60405180910390fd5b600360008373ffffffffffffffffffffffffffffffffffffffff1673ffffffffffffffffffffffffffffffffffffffff168152602001908152602001600020549050919050565b611243611d06565b61124d6000611dc1565b565b606060008061125d30611183565b905060008167ffffffffffffffff8111156112a1577f4e487b7100000000000000000000000000000000000000000000000000000000600052604160045260246000fd5b6040519080825280602002602001820160405280156112da57816020015b6112c7612644565b8152602001906001900390816112bf5790505b50905060005b600b805490508110156114af57600073ffffffffffffffffffffffffffffffffffffffff16600b828154811061133f577f4e487b7100000000000000000000000000000000000000000000000000000000600052603260045260246000fd5b906000526020600020906003020160010160009054906101000a900473ffffffffffffffffffffffffffffffffffffffff1673ffffffffffffffffffffffffffffffffffffffff161461149c57600b81815481106113c6577f4e487b7100000000000000000000000000000000000000000000000000000000600052603260045260246000fd5b9060005260206000209060030201604051806060016040529081600082015481526020016001820160009054906101000a900473ffffffffffffffffffffffffffffffffffffffff1673ffffffffffffffffffffffffffffffffffffffff1673ffffffffffffffffffffffffffffffffffffffff168152602001600282015481525050828581518110611482577f4e487b7100000000000000000000000000000000000000000000000000000000600052603260045260246000fd5b602002602001018190525083806114989061326b565b9450505b80806114a79061326b565b9150506112e0565b5080935050505090565b6000600660009054906101000a900473ffffffffffffffffffffffffffffffffffffffff16905090565b6060600180546114f290613208565b80601f016020809104026020016040519081016040528092919081815260200182805461151e90613208565b801561156b5780601f106115405761010080835404028352916020019161156b565b820191906000526020600020905b81548152906001019060200180831161154e57829003601f168201915b5050505050905090565b6115876115806118b6565b8383611e87565b5050565b61159c6115966118b6565b83611977565b6115db576040517f08c379a00000000000000000000000000000000000000000000000000000000081526004016115d290612e5c565b60405180910390fd5b6115e784848484611ff4565b50505050565b600a5481565b6008805461160090613208565b80601f016020809104026020016040519081016040528092919081815260200182805461162c90613208565b80156116795780601f1061164e57610100808354040283529160200191611679565b820191906000526020600020905b81548152906001019060200180831161165c57829003601f168201915b505050505081565b606061168c8261186b565b6000611696612050565b905060008151116116b657604051806020016040528060008152506116e1565b806116c0846120e2565b6040516020016116d1929190612d49565b6040516020818303038152906040525b915050919050565b6000600560008473ffffffffffffffffffffffffffffffffffffffff1673ffffffffffffffffffffffffffffffffffffffff16815260200190815260200160002060008373ffffffffffffffffffffffffffffffffffffffff1673ffffffffffffffffffffffffffffffffffffffff16815260200190815260200160002060009054906101000a900460ff16905092915050565b611785611d06565b600073ffffffffffffffffffffffffffffffffffffffff168173ffffffffffffffffffffffffffffffffffffffff1614156117f5576040517f08c379a00000000000000000000000000000000000000000000000000000000081526004016117ec90612ebc565b60405180910390fd5b6117fe81611dc1565b50565b60007f01ffc9a7000000000000000000000000000000000000000000000000000000007bffffffffffffffffffffffffffffffffffffffffffffffffffffffff1916827bffffffffffffffffffffffffffffffffffffffffffffffffffffffff1916149050919050565b61187481612206565b6118b3576040517f08c379a00000000000000000000000000000000000000000000000000000000081526004016118aa90612fbc565b60405180910390fd5b50565b600033905090565b816004600083815260200190815260200160002060006101000a81548173ffffffffffffffffffffffffffffffffffffffff021916908373ffffffffffffffffffffffffffffffffffffffff160217905550808273ffffffffffffffffffffffffffffffffffffffff16611931836110fc565b73ffffffffffffffffffffffffffffffffffffffff167f8c5be1e5ebec7d5bd14f71427d1e84f3dd0314c0f7b2291e5b200ac8c7c3b92560405160405180910390a45050565b600080611983836110fc565b90508073ffffffffffffffffffffffffffffffffffffffff168473ffffffffffffffffffffffffffffffffffffffff1614806119c557506119c481856116e9565b5b80611a0357508373ffffffffffffffffffffffffffffffffffffffff166119eb84610826565b73ffffffffffffffffffffffffffffffffffffffff16145b91505092915050565b8273ffffffffffffffffffffffffffffffffffffffff16611a2c826110fc565b73ffffffffffffffffffffffffffffffffffffffff1614611a82576040517f08c379a0000000000000000000000000000000000000000000000000000000008152600401611a7990612edc565b60405180910390fd5b600073ffffffffffffffffffffffffffffffffffffffff168273ffffffffffffffffffffffffffffffffffffffff161415611af2576040517f08c379a0000000000000000000000000000000000000000000000000000000008152600401611ae990612f1c565b60405180910390fd5b611aff8383836001612247565b8273ffffffffffffffffffffffffffffffffffffffff16611b1f826110fc565b73ffffffffffffffffffffffffffffffffffffffff1614611b75576040517f08c379a0000000000000000000000000000000000000000000000000000000008152600401611b6c90612edc565b60405180910390fd5b6004600082815260200190815260200160002060006101000a81549073ffffffffffffffffffffffffffffffffffffffff02191690556001600360008573ffffffffffffffffffffffffffffffffffffffff1673ffffffffffffffffffffffffffffffffffffffff168152602001908152602001600020600082825403925050819055506001600360008473ffffffffffffffffffffffffffffffffffffffff1673ffffffffffffffffffffffffffffffffffffffff16815260200190815260200160002060008282540192505081905550816002600083815260200190815260200160002060006101000a81548173ffffffffffffffffffffffffffffffffffffffff021916908373ffffffffffffffffffffffffffffffffffffffff160217905550808273ffffffffffffffffffffffffffffffffffffffff168473ffffffffffffffffffffffffffffffffffffffff167fddf252ad1be2c89b69c2b068fc378daa952ba7f163c4a11628f55a4df523b3ef60405160405180910390a4611d01838383600161224d565b505050565b611d0e6118b6565b73ffffffffffffffffffffffffffffffffffffffff16611d2c6114b9565b73ffffffffffffffffffffffffffffffffffffffff1614611d82576040517f08c379a0000000000000000000000000000000000000000000000000000000008152600401611d7990612f9c565b60405180910390fd5b565b60006002600083815260200190815260200160002060009054906101000a900473ffffffffffffffffffffffffffffffffffffffff169050919050565b6000600660009054906101000a900473ffffffffffffffffffffffffffffffffffffffff16905081600660006101000a81548173ffffffffffffffffffffffffffffffffffffffff021916908373ffffffffffffffffffffffffffffffffffffffff1602179055508173ffffffffffffffffffffffffffffffffffffffff168173ffffffffffffffffffffffffffffffffffffffff167f8be0079c531659141344cd1fd0a4f28419497f9722a3daafe3b4186f6b6457e060405160405180910390a35050565b8173ffffffffffffffffffffffffffffffffffffffff168373ffffffffffffffffffffffffffffffffffffffff161415611ef6576040517f08c379a0000000000000000000000000000000000000000000000000000000008152600401611eed90612f3c565b60405180910390fd5b80600560008573ffffffffffffffffffffffffffffffffffffffff1673ffffffffffffffffffffffffffffffffffffffff16815260200190815260200160002060008473ffffffffffffffffffffffffffffffffffffffff1673ffffffffffffffffffffffffffffffffffffffff16815260200190815260200160002060006101000a81548160ff0219169083151502179055508173ffffffffffffffffffffffffffffffffffffffff168373ffffffffffffffffffffffffffffffffffffffff167f17307eab39ab6107e8899845ad3d59bd9653f200f220920489ca2b5937696c3183604051611fe79190612e1f565b60405180910390a3505050565b611fff848484611a0c565b61200b84848484612253565b61204a576040517f08c379a000000000000000000000000000000000000000000000000000000000815260040161204190612e9c565b60405180910390fd5b50505050565b60606007805461205f90613208565b80601f016020809104026020016040519081016040528092919081815260200182805461208b90613208565b80156120d85780601f106120ad576101008083540402835291602001916120d8565b820191906000526020600020905b8154815290600101906020018083116120bb57829003601f168201915b5050505050905090565b6060600060016120f1846123ea565b01905060008167ffffffffffffffff811115612136577f4e487b7100000000000000000000000000000000000000000000000000000000600052604160045260246000fd5b6040519080825280601f01601f1916602001820160405280156121685781602001600182028036833780820191505090505b509050600082602001820190505b6001156121fb578080600190039150507f3031323334353637383961626364656600000000000000000000000000000000600a86061a8153600a85816121e5577f4e487b7100000000000000000000000000000000000000000000000000000000600052601260045260246000fd5b04945060008514156121f6576121fb565b612176565b819350505050919050565b60008073ffffffffffffffffffffffffffffffffffffffff1661222883611d84565b73ffffffffffffffffffffffffffffffffffffffff1614159050919050565b50505050565b50505050565b60006122748473ffffffffffffffffffffffffffffffffffffffff16612621565b156123dd578373ffffffffffffffffffffffffffffffffffffffff1663150b7a0261229d6118b6565b8786866040518563ffffffff1660e01b81526004016122bf9493929190612d88565b602060405180830381600087803b1580156122d957600080fd5b505af192505050801561230a57506040513d601f19601f82011682018060405250810190612307919061291c565b60015b61238d573d806000811461233a576040519150601f19603f3d011682016040523d82523d6000602084013e61233f565b606091505b50600081511415612385576040517f08c379a000000000000000000000000000000000000000000000000000000000815260040161237c90612e9c565b60405180910390fd5b805181602001fd5b63150b7a0260e01b7bffffffffffffffffffffffffffffffffffffffffffffffffffffffff1916817bffffffffffffffffffffffffffffffffffffffffffffffffffffffff1916149150506123e2565b600190505b949350505050565b600080600090507a184f03e93ff9f4daa797ed6e38ed64bf6a1f010000000000000000831061246e577a184f03e93ff9f4daa797ed6e38ed64bf6a1f0100000000000000008381612464577f4e487b7100000000000000000000000000000000000000000000000000000000600052601260045260246000fd5b0492506040810190505b6d04ee2d6d415b85acef810000000083106124d1576d04ee2d6d415b85acef810000000083816124c7577f4e487b7100000000000000000000000000000000000000000000000000000000600052601260045260246000fd5b0492506020810190505b662386f26fc10000831061252657662386f26fc10000838161251c577f4e487b7100000000000000000000000000000000000000000000000000000000600052601260045260246000fd5b0492506010810190505b6305f5e1008310612575576305f5e100838161256b577f4e487b7100000000000000000000000000000000000000000000000000000000600052601260045260246000fd5b0492506008810190505b61271083106125c05761271083816125b6577f4e487b7100000000000000000000000000000000000000000000000000000000600052601260045260246000fd5b0492506004810190505b6064831061260957606483816125ff577f4e487b7100000000000000000000000000000000000000000000000000000000600052601260045260246000fd5b0492506002810190505b600a8310612618576001810190505b80915050919050565b6000808273ffffffffffffffffffffffffffffffffffffffff163b119050919050565b604051806060016040528060008152602001600073ffffffffffffffffffffffffffffffffffffffff168152602001600081525090565b600061268e61268984613093565b61306e565b9050828152602081018484840111156126a657600080fd5b6126b18482856131c6565b509392505050565b6000813590506126c88161370c565b92915050565b6000813590506126dd81613723565b92915050565b6000813590506126f28161373a565b92915050565b6000815190506127078161373a565b92915050565b600082601f83011261271e57600080fd5b813561272e84826020860161267b565b91505092915050565b60008135905061274681613751565b92915050565b60006020828403121561275e57600080fd5b600061276c848285016126b9565b91505092915050565b6000806040838503121561278857600080fd5b6000612796858286016126b9565b92505060206127a7858286016126b9565b9150509250929050565b6000806000606084860312156127c657600080fd5b60006127d4868287016126b9565b93505060206127e5868287016126b9565b92505060406127f686828701612737565b9150509250925092565b6000806000806080858703121561281657600080fd5b6000612824878288016126b9565b9450506020612835878288016126b9565b935050604061284687828801612737565b925050606085013567ffffffffffffffff81111561286357600080fd5b61286f8782880161270d565b91505092959194509250565b6000806040838503121561288e57600080fd5b600061289c858286016126b9565b92505060206128ad858286016126ce565b9150509250929050565b600080604083850312156128ca57600080fd5b60006128d8858286016126b9565b92505060206128e985828601612737565b9150509250929050565b60006020828403121561290557600080fd5b6000612913848285016126e3565b91505092915050565b60006020828403121561292e57600080fd5b600061293c848285016126f8565b91505092915050565b60006020828403121561295757600080fd5b600061296584828501612737565b91505092915050565b6000806040838503121561298157600080fd5b600061298f85828601612737565b92505060206129a085828601612737565b9150509250929050565b60006129b68383612ce9565b60608301905092915050565b6129cb81613152565b82525050565b6129da81613152565b82525050565b6129e981613140565b82525050565b60006129fa826130d4565b612a048185613102565b9350612a0f836130c4565b8060005b83811015612a40578151612a2788826129aa565b9750612a32836130f5565b925050600181019050612a13565b5085935050505092915050565b612a5681613164565b82525050565b6000612a67826130df565b612a718185613113565b9350612a818185602086016131d5565b612a8a81613341565b840191505092915050565b6000612aa0826130ea565b612aaa8185613124565b9350612aba8185602086016131d5565b612ac381613341565b840191505092915050565b6000612ad9826130ea565b612ae38185613135565b9350612af38185602086016131d5565b80840191505092915050565b6000612b0c602d83613124565b9150612b1782613352565b604082019050919050565b6000612b2f601f83613124565b9150612b3a826133a1565b602082019050919050565b6000612b52603283613124565b9150612b5d826133ca565b604082019050919050565b6000612b75602683613124565b9150612b8082613419565b604082019050919050565b6000612b98602583613124565b9150612ba382613468565b604082019050919050565b6000612bbb601083613124565b9150612bc6826134b7565b602082019050919050565b6000612bde602483613124565b9150612be9826134e0565b604082019050919050565b6000612c01601983613124565b9150612c0c8261352f565b602082019050919050565b6000612c24602983613124565b9150612c2f82613558565b604082019050919050565b6000612c47604183613124565b9150612c52826135a7565b606082019050919050565b6000612c6a602083613124565b9150612c758261361c565b602082019050919050565b6000612c8d601883613124565b9150612c9882613645565b602082019050919050565b6000612cb0602183613124565b9150612cbb8261366e565b604082019050919050565b6000612cd3603d83613124565b9150612cde826136bd565b604082019050919050565b606082016000820151612cff6000850182612d2b565b506020820151612d1260208501826129c2565b506040820151612d256040850182612d2b565b50505050565b612d34816131bc565b82525050565b612d43816131bc565b82525050565b6000612d558285612ace565b9150612d618284612ace565b91508190509392505050565b6000602082019050612d8260008301846129e0565b92915050565b6000608082019050612d9d60008301876129e0565b612daa60208301866129e0565b612db76040830185612d3a565b8181036060830152612dc98184612a5c565b905095945050505050565b6000604082019050612de960008301856129e0565b612df66020830184612d3a565b9392505050565b60006020820190508181036000830152612e1781846129ef565b905092915050565b6000602082019050612e346000830184612a4d565b92915050565b60006020820190508181036000830152612e548184612a95565b905092915050565b60006020820190508181036000830152612e7581612aff565b9050919050565b60006020820190508181036000830152612e9581612b22565b9050919050565b60006020820190508181036000830152612eb581612b45565b9050919050565b60006020820190508181036000830152612ed581612b68565b9050919050565b60006020820190508181036000830152612ef581612b8b565b9050919050565b60006020820190508181036000830152612f1581612bae565b9050919050565b60006020820190508181036000830152612f3581612bd1565b9050919050565b60006020820190508181036000830152612f5581612bf4565b9050919050565b60006020820190508181036000830152612f7581612c17565b9050919050565b60006020820190508181036000830152612f9581612c3a565b9050919050565b60006020820190508181036000830152612fb581612c5d565b9050919050565b60006020820190508181036000830152612fd581612c80565b9050919050565b60006020820190508181036000830152612ff581612ca3565b9050919050565b6000602082019050818103600083015261301581612cc6565b9050919050565b60006020820190506130316000830184612d3a565b92915050565b600060608201905061304c6000830186612d3a565b61305960208301856129d1565b6130666040830184612d3a565b949350505050565b6000613078613089565b9050613084828261323a565b919050565b6000604051905090565b600067ffffffffffffffff8211156130ae576130ad613312565b5b6130b782613341565b9050602081019050919050565b6000819050602082019050919050565b600081519050919050565b600081519050919050565b600081519050919050565b6000602082019050919050565b600082825260208201905092915050565b600082825260208201905092915050565b600082825260208201905092915050565b600081905092915050565b600061314b8261319c565b9050919050565b600061315d8261319c565b9050919050565b60008115159050919050565b60007fffffffff0000000000000000000000000000000000000000000000000000000082169050919050565b600073ffffffffffffffffffffffffffffffffffffffff82169050919050565b6000819050919050565b82818337600083830152505050565b60005b838110156131f35780820151818401526020810190506131d8565b83811115613202576000848401525b50505050565b6000600282049050600182168061322057607f821691505b60208210811415613234576132336132e3565b5b50919050565b61324382613341565b810181811067ffffffffffffffff8211171561326257613261613312565b5b80604052505050565b6000613276826131bc565b91507fffffffffffffffffffffffffffffffffffffffffffffffffffffffffffffffff8214156132a9576132a86132b4565b5b600182019050919050565b7f4e487b7100000000000000000000000000000000000000000000000000000000600052601160045260246000fd5b7f4e487b7100000000000000000000000000000000000000000000000000000000600052602260045260246000fd5b7f4e487b7100000000000000000000000000000000000000000000000000000000600052604160045260246000fd5b6000601f19601f8301169050919050565b7f4552433732313a2063616c6c6572206973206e6f7420746f6b656e206f776e6560008201527f72206f7220617070726f76656400000000000000000000000000000000000000602082015250565b7f5072696365206d7573742062652067726561746572207468616e207a65726f00600082015250565b7f4552433732313a207472616e7366657220746f206e6f6e20455243373231526560008201527f63656976657220696d706c656d656e7465720000000000000000000000000000602082015250565b7f4f776e61626c653a206e6577206f776e657220697320746865207a65726f206160008201527f6464726573730000000000000000000000000000000000000000000000000000602082015250565b7f4552433732313a207472616e736665722066726f6d20696e636f72726563742060008201527f6f776e6572000000000000000000000000000000000000000000000000000000602082015250565b7f4d7573742070617920726f79616c747900000000000000000000000000000000600082015250565b7f4552433732313a207472616e7366657220746f20746865207a65726f2061646460008201527f7265737300000000000000000000000000000000000000000000000000000000602082015250565b7f4552433732313a20617070726f766520746f2063616c6c657200000000000000600082015250565b7f4552433732313a2061646472657373207a65726f206973206e6f74206120766160008201527f6c6964206f776e65720000000000000000000000000000000000000000000000602082015250565b7f506c656173652073656e64207468652061736b696e6720707269636520696e2060008201527f6f7264657220746f20636f6d706c65746520746865207472616e73616374696f60208201527f6e00000000000000000000000000000000000000000000000000000000000000604082015250565b7f4f776e61626c653a2063616c6c6572206973206e6f7420746865206f776e6572600082015250565b7f4552433732313a20696e76616c696420746f6b656e2049440000000000000000600082015250565b7f4552433732313a20617070726f76616c20746f2063757272656e74206f776e6560008201527f7200000000000000000000000000000000000000000000000000000000000000602082015250565b7f4552433732313a20617070726f76652063616c6c6572206973206e6f7420746f60008201527f6b656e206f776e6572206f7220617070726f76656420666f7220616c6c000000602082015250565b61371581613140565b811461372057600080fd5b50565b61372c81613164565b811461373757600080fd5b50565b61374381613170565b811461374e57600080fd5b50565b61375a816131bc565b811461376557600080fd5b5056fea26469706673582212208b16f8790916923aba5a15bbe6f4381b52f6b54ec0e3d00337ecfdaca0a159f864736f6c6343000804003368747470733a2f2f62616679626569687a6c6e707637657135693575746b6d6337786575623367767a737a6a697175366a763572706264686934326e696566623664752e697066732e6e667473746f726167652e6c696e6b2f",
  "linkReferences": {},
  "deployedLinkReferences": {}
}