{
  "_format": "hh-sol-artifact-1",
  "contractName": "MidnightOwl",
  "sourceName": "src/backend/contracts/main_contract.sol",
  "abi": [
    {
      "inputs": [
        {
          "internalType": "address",
          "name": "_artist",
          "type": "address"
        },
        {
          "internalType": "uint256",
          "name": "_royaltyFee",
          "type": "uint256"
        },
        {
          "internalType": "uint256[]",
          "name": "_prices",
          "type": "uint256[]"
        }
      ],
      "stateMutability": "payable",
      "type": "constructor"
    },
    {
      "anonymous": false,
      "inputs": [
        {
          "indexed": true,
          "internalType": "address",
          "name": "owner",
          "type": "address"
        },
        {
          "indexed": true,
          "internalType": "address",
          "name": "approved",
          "type": "address"
        },
        {
          "indexed": true,
          "internalType": "uint256",
          "name": "tokenId",
          "type": "uint256"
        }
      ],
      "name": "Approval",
      "type": "event"
    },
    {
      "anonymous": false,
      "inputs": [
        {
          "indexed": true,
          "internalType": "address",
          "name": "owner",
          "type": "address"
        },
        {
          "indexed": true,
          "internalType": "address",
          "name": "operator",
          "type": "address"
        },
        {
          "indexed": false,
          "internalType": "bool",
          "name": "approved",
          "type": "bool"
        }
      ],
      "name": "ApprovalForAll",
      "type": "event"
    },
    {
      "anonymous": false,
      "inputs": [
        {
          "indexed": true,
          "internalType": "uint256",
          "name": "tokenId",
          "type": "uint256"
        },
        {
          "indexed": true,
          "internalType": "address",
          "name": "seller",
          "type": "address"
        },
        {
          "indexed": false,
          "internalType": "address",
          "name": "buyer",
          "type": "address"
        },
        {
          "indexed": false,
          "internalType": "uint256",
          "name": "price",
          "type": "uint256"
        }
      ],
      "name": "MarketItemBought",
      "type": "event"
    },
    {
      "anonymous": false,
      "inputs": [
        {
          "indexed": true,
          "internalType": "uint256",
          "name": "tokenId",
          "type": "uint256"
        },
        {
          "indexed": true,
          "internalType": "address",
          "name": "seller",
          "type": "address"
        },
        {
          "indexed": false,
          "internalType": "uint256",
          "name": "price",
          "type": "uint256"
        }
      ],
      "name": "MarketItemRelisted",
      "type": "event"
    },
    {
      "anonymous": false,
      "inputs": [
        {
          "indexed": true,
          "internalType": "address",
          "name": "previousOwner",
          "type": "address"
        },
        {
          "indexed": true,
          "internalType": "address",
          "name": "newOwner",
          "type": "address"
        }
      ],
      "name": "OwnershipTransferred",
      "type": "event"
    },
    {
      "anonymous": false,
      "inputs": [
        {
          "indexed": true,
          "internalType": "address",
          "name": "from",
          "type": "address"
        },
        {
          "indexed": true,
          "internalType": "address",
          "name": "to",
          "type": "address"
        },
        {
          "indexed": true,
          "internalType": "uint256",
          "name": "tokenId",
          "type": "uint256"
        }
      ],
      "name": "Transfer",
      "type": "event"
    },
    {
      "inputs": [
        {
          "internalType": "address",
          "name": "to",
          "type": "address"
        },
        {
          "internalType": "uint256",
          "name": "tokenId",
          "type": "uint256"
        }
      ],
      "name": "approve",
      "outputs": [],
      "stateMutability": "nonpayable",
      "type": "function"
    },
    {
      "inputs": [],
      "name": "artist",
      "outputs": [
        {
          "internalType": "address",
          "name": "",
          "type": "address"
        }
      ],
      "stateMutability": "view",
      "type": "function"
    },
    {
      "inputs": [
        {
          "internalType": "address",
          "name": "owner",
          "type": "address"
        }
      ],
      "name": "balanceOf",
      "outputs": [
        {
          "internalType": "uint256",
          "name": "",
          "type": "uint256"
        }
      ],
      "stateMutability": "view",
      "type": "function"
    },
    {
      "inputs": [],
      "name": "baseExtension",
      "outputs": [
        {
          "internalType": "string",
          "name": "",
          "type": "string"
        }
      ],
      "stateMutability": "view",
      "type": "function"
    },
    {
      "inputs": [
        {
          "internalType": "uint256",
          "name": "_tokenId",
          "type": "uint256"
        }
      ],
      "name": "buyToken",
      "outputs": [],
      "stateMutability": "payable",
      "type": "function"
    },
    {
      "inputs": [],
      "name": "getAllUnsoldTokens",
      "outputs": [
        {
          "components": [
            {
              "internalType": "uint256",
              "name": "tokenId",
              "type": "uint256"
            },
            {
              "internalType": "address payable",
              "name": "seller",
              "type": "address"
            },
            {
              "internalType": "uint256",
              "name": "price",
              "type": "uint256"
            }
          ],
          "internalType": "struct MidnightOwl.MarketItem[]",
          "name": "",
          "type": "tuple[]"
        }
      ],
      "stateMutability": "view",
      "type": "function"
    },
    {
      "inputs": [
        {
          "internalType": "uint256",
          "name": "tokenId",
          "type": "uint256"
        }
      ],
      "name": "getApproved",
      "outputs": [
        {
          "internalType": "address",
          "name": "",
          "type": "address"
        }
      ],
      "stateMutability": "view",
      "type": "function"
    },
    {
      "inputs": [],
      "name": "getMyTokens",
      "outputs": [
        {
          "components": [
            {
              "internalType": "uint256",
              "name": "tokenId",
              "type": "uint256"
            },
            {
              "internalType": "address payable",
              "name": "seller",
              "type": "address"
            },
            {
              "internalType": "uint256",
              "name": "price",
              "type": "uint256"
            }
          ],
          "internalType": "struct MidnightOwl.MarketItem[]",
          "name": "",
          "type": "tuple[]"
        }
      ],
      "stateMutability": "view",
      "type": "function"
    },
    {
      "inputs": [
        {
          "internalType": "address",
          "name": "owner",
          "type": "address"
        },
        {
          "internalType": "address",
          "name": "operator",
          "type": "address"
        }
      ],
      "name": "isApprovedForAll",
      "outputs": [
        {
          "internalType": "bool",
          "name": "",
          "type": "bool"
        }
      ],
      "stateMutability": "view",
      "type": "function"
    },
    {
      "inputs": [
        {
          "internalType": "uint256",
          "name": "",
          "type": "uint256"
        }
      ],
      "name": "marketItems",
      "outputs": [
        {
          "internalType": "uint256",
          "name": "tokenId",
          "type": "uint256"
        },
        {
          "internalType": "address payable",
          "name": "seller",
          "type": "address"
        },
        {
          "internalType": "uint256",
          "name": "price",
          "type": "uint256"
        }
      ],
      "stateMutability": "view",
      "type": "function"
    },
    {
      "inputs": [],
      "name": "metadataURI",
      "outputs": [
        {
          "internalType": "string",
          "name": "",
          "type": "string"
        }
      ],
      "stateMutability": "view",
      "type": "function"
    },
    {
      "inputs": [],
      "name": "name",
      "outputs": [
        {
          "internalType": "string",
          "name": "",
          "type": "string"
        }
      ],
      "stateMutability": "view",
      "type": "function"
    },
    {
      "inputs": [],
      "name": "owner",
      "outputs": [
        {
          "internalType": "address",
          "name": "",
          "type": "address"
        }
      ],
      "stateMutability": "view",
      "type": "function"
    },
    {
      "inputs": [
        {
          "internalType": "uint256",
          "name": "tokenId",
          "type": "uint256"
        }
      ],
      "name": "ownerOf",
      "outputs": [
        {
          "internalType": "address",
          "name": "",
          "type": "address"
        }
      ],
      "stateMutability": "view",
      "type": "function"
    },
    {
      "inputs": [
        {
          "internalType": "uint256",
          "name": "_tokenId",
          "type": "uint256"
        },
        {
          "internalType": "uint256",
          "name": "_price",
          "type": "uint256"
        }
      ],
      "name": "relistToken",
      "outputs": [],
      "stateMutability": "payable",
      "type": "function"
    },
    {
      "inputs": [],
      "name": "renounceOwnership",
      "outputs": [],
      "stateMutability": "nonpayable",
      "type": "function"
    },
    {
      "inputs": [],
      "name": "royaltyFee",
      "outputs": [
        {
          "internalType": "uint256",
          "name": "",
          "type": "uint256"
        }
      ],
      "stateMutability": "view",
      "type": "function"
    },
    {
      "inputs": [
        {
          "internalType": "address",
          "name": "from",
          "type": "address"
        },
        {
          "internalType": "address",
          "name": "to",
          "type": "address"
        },
        {
          "internalType": "uint256",
          "name": "tokenId",
          "type": "uint256"
        }
      ],
      "name": "safeTransferFrom",
      "outputs": [],
      "stateMutability": "nonpayable",
      "type": "function"
    },
    {
      "inputs": [
        {
          "internalType": "address",
          "name": "from",
          "type": "address"
        },
        {
          "internalType": "address",
          "name": "to",
          "type": "address"
        },
        {
          "internalType": "uint256",
          "name": "tokenId",
          "type": "uint256"
        },
        {
          "internalType": "bytes",
          "name": "_data",
          "type": "bytes"
        }
      ],
      "name": "safeTransferFrom",
      "outputs": [],
      "stateMutability": "nonpayable",
      "type": "function"
    },
    {
      "inputs": [
        {
          "internalType": "address",
          "name": "operator",
          "type": "address"
        },
        {
          "internalType": "bool",
          "name": "approved",
          "type": "bool"
        }
      ],
      "name": "setApprovalForAll",
      "outputs": [],
      "stateMutability": "nonpayable",
      "type": "function"
    },
    {
      "inputs": [
        {
          "internalType": "bytes4",
          "name": "interfaceId",
          "type": "bytes4"
        }
      ],
      "name": "supportsInterface",
      "outputs": [
        {
          "internalType": "bool",
          "name": "",
          "type": "bool"
        }
      ],
      "stateMutability": "view",
      "type": "function"
    },
    {
      "inputs": [],
      "name": "symbol",
      "outputs": [
        {
          "internalType": "string",
          "name": "",
          "type": "string"
        }
      ],
      "stateMutability": "view",
      "type": "function"
    },
    {
      "inputs": [
        {
          "internalType": "uint256",
          "name": "tokenId",
          "type": "uint256"
        }
      ],
      "name": "tokenURI",
      "outputs": [
        {
          "internalType": "string",
          "name": "",
          "type": "string"
        }
      ],
      "stateMutability": "view",
      "type": "function"
    },
    {
      "inputs": [
        {
          "internalType": "address",
          "name": "from",
          "type": "address"
        },
        {
          "internalType": "address",
          "name": "to",
          "type": "address"
        },
        {
          "internalType": "uint256",
          "name": "tokenId",
          "type": "uint256"
        }
      ],
      "name": "transferFrom",
      "outputs": [],
      "stateMutability": "nonpayable",
      "type": "function"
    },
    {
      "inputs": [
        {
          "internalType": "address",
          "name": "newOwner",
          "type": "address"
        }
      ],
      "name": "transferOwnership",
      "outputs": [],
      "stateMutability": "nonpayable",
      "type": "function"
    },
    {
      "inputs": [
        {
          "internalType": "uint256",
          "name": "_royaltyFee",
          "type": "uint256"
        }
      ],
      "name": "updateRoyaltyFee",
      "outputs": [],
      "stateMutability": "nonpayable",
      "type": "function"
    }
  ],
  "bytecode": "0x6080604052604051806080016040528060598152602001620047a360599139600790805190602001906200003592919062000712565b506040518060400160405280600581526020017f2e6a736f6e000000000000000000000000000000000000000000000000000000815250600890805190602001906200008392919062000712565b50604051620047fc380380620047fc8339818101604052810190620000a9919062000892565b6040518060400160405280600b81526020017f4d69646e696768744f776c0000000000000000000000000000000000000000008152506040518060400160405280600481526020017f4d4f574c0000000000000000000000000000000000000000000000000000000081525081600090805190602001906200012d92919062000712565b5080600190805190602001906200014692919062000712565b505050620001696200015d620003d460201b60201c565b620003dc60201b60201c565b3482825162000179919062000aeb565b1115620001bd576040517f08c379a0000000000000000000000000000000000000000000000000000000008152600401620001b490620009bf565b60405180910390fd5b81600a8190555082600960006101000a81548173ffffffffffffffffffffffffffffffffffffffff021916908373ffffffffffffffffffffffffffffffffffffffff16021790555060005b81518160ff161015620003ca576000828260ff168151811062000254577f4e487b7100000000000000000000000000000000000000000000000000000000600052603260045260246000fd5b6020026020010151116200029f576040517f08c379a0000000000000000000000000000000000000000000000000000000008152600401620002969062000a03565b60405180910390fd5b620002b4308260ff16620004a260201b60201c565b600b60405180606001604052808360ff1681526020013373ffffffffffffffffffffffffffffffffffffffff168152602001848460ff168151811062000323577f4e487b7100000000000000000000000000000000000000000000000000000000600052603260045260246000fd5b602002602001015181525090806001815401808255809150506001900390600052602060002090600302016000909190919091506000820151816000015560208201518160010160006101000a81548173ffffffffffffffffffffffffffffffffffffffff021916908373ffffffffffffffffffffffffffffffffffffffff1602179055506040820151816002015550508080620003c19062000c03565b91505062000208565b5050505062000dce565b600033905090565b6000600660009054906101000a900473ffffffffffffffffffffffffffffffffffffffff16905081600660006101000a81548173ffffffffffffffffffffffffffffffffffffffff021916908373ffffffffffffffffffffffffffffffffffffffff1602179055508173ffffffffffffffffffffffffffffffffffffffff168173ffffffffffffffffffffffffffffffffffffffff167f8be0079c531659141344cd1fd0a4f28419497f9722a3daafe3b4186f6b6457e060405160405180910390a35050565b600073ffffffffffffffffffffffffffffffffffffffff168273ffffffffffffffffffffffffffffffffffffffff16141562000515576040517f08c379a00000000000000000000000000000000000000000000000000000000081526004016200050c90620009e1565b60405180910390fd5b62000526816200069c60201b60201c565b1562000569576040517f08c379a000000000000000000000000000000000000000000000000000000000815260040162000560906200099d565b60405180910390fd5b6200057d600083836200070860201b60201c565b6001600360008473ffffffffffffffffffffffffffffffffffffffff1673ffffffffffffffffffffffffffffffffffffffff1681526020019081526020016000206000828254620005cf919062000a8e565b92505081905550816002600083815260200190815260200160002060006101000a81548173ffffffffffffffffffffffffffffffffffffffff021916908373ffffffffffffffffffffffffffffffffffffffff160217905550808273ffffffffffffffffffffffffffffffffffffffff16600073ffffffffffffffffffffffffffffffffffffffff167fddf252ad1be2c89b69c2b068fc378daa952ba7f163c4a11628f55a4df523b3ef60405160405180910390a462000698600083836200070d60201b60201c565b5050565b60008073ffffffffffffffffffffffffffffffffffffffff166002600084815260200190815260200160002060009054906101000a900473ffffffffffffffffffffffffffffffffffffffff1673ffffffffffffffffffffffffffffffffffffffff1614159050919050565b505050565b505050565b828054620007209062000b97565b90600052602060002090601f01602090048101928262000744576000855562000790565b82601f106200075f57805160ff191683800117855562000790565b8280016001018555821562000790579182015b828111156200078f57825182559160200191906001019062000772565b5b5090506200079f9190620007a3565b5090565b5b80821115620007be576000816000905550600101620007a4565b5090565b6000620007d9620007d38462000a4e565b62000a25565b90508083825260208201905082856020860282011115620007f957600080fd5b60005b858110156200082d57816200081288826200087b565b845260208401935060208301925050600181019050620007fc565b5050509392505050565b600081519050620008488162000d9a565b92915050565b600082601f8301126200086057600080fd5b815162000872848260208601620007c2565b91505092915050565b6000815190506200088c8162000db4565b92915050565b600080600060608486031215620008a857600080fd5b6000620008b88682870162000837565b9350506020620008cb868287016200087b565b925050604084015167ffffffffffffffff811115620008e957600080fd5b620008f7868287016200084e565b9150509250925092565b600062000910601c8362000a7d565b91506200091d8262000cd0565b602082019050919050565b60006200093760348362000a7d565b9150620009448262000cf9565b604082019050919050565b60006200095e60208362000a7d565b91506200096b8262000d48565b602082019050919050565b600062000985601c8362000a7d565b9150620009928262000d71565b602082019050919050565b60006020820190508181036000830152620009b88162000901565b9050919050565b60006020820190508181036000830152620009da8162000928565b9050919050565b60006020820190508181036000830152620009fc816200094f565b9050919050565b6000602082019050818103600083015262000a1e8162000976565b9050919050565b600062000a3162000a44565b905062000a3f828262000bcd565b919050565b6000604051905090565b600067ffffffffffffffff82111562000a6c5762000a6b62000c90565b5b602082029050602081019050919050565b600082825260208201905092915050565b600062000a9b8262000b80565b915062000aa88362000b80565b9250827fffffffffffffffffffffffffffffffffffffffffffffffffffffffffffffffff0382111562000ae05762000adf62000c32565b5b828201905092915050565b600062000af88262000b80565b915062000b058362000b80565b9250817fffffffffffffffffffffffffffffffffffffffffffffffffffffffffffffffff048311821515161562000b415762000b4062000c32565b5b828202905092915050565b600062000b598262000b60565b9050919050565b600073ffffffffffffffffffffffffffffffffffffffff82169050919050565b6000819050919050565b600060ff82169050919050565b6000600282049050600182168062000bb057607f821691505b6020821081141562000bc75762000bc662000c61565b5b50919050565b62000bd88262000cbf565b810181811067ffffffffffffffff8211171562000bfa5762000bf962000c90565b5b80604052505050565b600062000c108262000b8a565b915060ff82141562000c275762000c2662000c32565b5b600182019050919050565b7f4e487b7100000000000000000000000000000000000000000000000000000000600052601160045260246000fd5b7f4e487b7100000000000000000000000000000000000000000000000000000000600052602260045260246000fd5b7f4e487b7100000000000000000000000000000000000000000000000000000000600052604160045260246000fd5b6000601f19601f8301169050919050565b7f4552433732313a20746f6b656e20616c7265616479206d696e74656400000000600082015250565b7f6465706c6f796572206d7573742070617920726f79616c74792066656520666f60008201527f72206561636820746f6b656e206c697374656420000000000000000000000000602082015250565b7f4552433732313a206d696e7420746f20746865207a65726f2061646472657373600082015250565b7f5072696365206d7573742062652067726561746572207468616e203000000000600082015250565b62000da58162000b4c565b811462000db157600080fd5b50565b62000dbf8162000b80565b811462000dcb57600080fd5b50565b6139c58062000dde6000396000f3fe6080604052600436106101815760003560e01c80636352211e116100d1578063a22cb4651161008a578063c668286211610064578063c668286214610556578063c87b56dd14610581578063e985e9c5146105be578063f2fde38b146105fb57610181565b8063a22cb465146104d9578063b88d4fde14610502578063b8997a971461052b57610181565b80636352211e146103c757806370a0823114610404578063715018a614610441578063767dd076146104585780638da5cb5b1461048357806395d89b41146104ae57610181565b80632d296bf11161013e5780634e83be47116101185780634e83be471461031857806351f28e14146103415780635b3b136a146103805780635e6b3c18146103ab57610181565b80632d296bf1146102a857806342842e0e146102c457806343bc1612146102ed57610181565b806301ffc9a71461018657806303ee438c146101c357806306fdde03146101ee578063081812fc14610219578063095ea7b31461025657806323b872dd1461027f575b600080fd5b34801561019257600080fd5b506101ad60048036038101906101a89190612823565b610624565b6040516101ba9190612db8565b60405180910390f35b3480156101cf57600080fd5b506101d8610706565b6040516101e59190612dd3565b60405180910390f35b3480156101fa57600080fd5b50610203610794565b6040516102109190612dd3565b60405180910390f35b34801561022557600080fd5b50610240600480360381019061023b9190612875565b610826565b60405161024d9190612d06565b60405180910390f35b34801561026257600080fd5b5061027d600480360381019061027891906127e7565b6108ab565b005b34801561028b57600080fd5b506102a660048036038101906102a191906126e1565b6109c3565b005b6102c260048036038101906102bd9190612875565b610a23565b005b3480156102d057600080fd5b506102eb60048036038101906102e691906126e1565b610cc3565b005b3480156102f957600080fd5b50610302610ce3565b60405161030f9190612d06565b60405180910390f35b34801561032457600080fd5b5061033f600480360381019061033a9190612875565b610d09565b005b34801561034d57600080fd5b5061036860048036038101906103639190612875565b610d8f565b60405161037793929190613030565b60405180910390f35b34801561038c57600080fd5b50610395610de9565b6040516103a29190612d96565b60405180910390f35b6103c560048036038101906103c0919061289e565b610ff0565b005b3480156103d357600080fd5b506103ee60048036038101906103e99190612875565b6111af565b6040516103fb9190612d06565b60405180910390f35b34801561041057600080fd5b5061042b6004803603810190610426919061267c565b611261565b6040516104389190613015565b60405180910390f35b34801561044d57600080fd5b50610456611319565b005b34801561046457600080fd5b5061046d6113a1565b60405161047a9190612d96565b60405180910390f35b34801561048f57600080fd5b5061049861160b565b6040516104a59190612d06565b60405180910390f35b3480156104ba57600080fd5b506104c3611635565b6040516104d09190612dd3565b60405180910390f35b3480156104e557600080fd5b5061050060048036038101906104fb91906127ab565b6116c7565b005b34801561050e57600080fd5b5061052960048036038101906105249190612730565b6116dd565b005b34801561053757600080fd5b5061054061173f565b60405161054d9190613015565b60405180910390f35b34801561056257600080fd5b5061056b611745565b6040516105789190612dd3565b60405180910390f35b34801561058d57600080fd5b506105a860048036038101906105a39190612875565b6117d3565b6040516105b59190612dd3565b60405180910390f35b3480156105ca57600080fd5b506105e560048036038101906105e091906126a5565b61187a565b6040516105f29190612db8565b60405180910390f35b34801561060757600080fd5b50610622600480360381019061061d919061267c565b61190e565b005b60007f80ac58cd000000000000000000000000000000000000000000000000000000007bffffffffffffffffffffffffffffffffffffffffffffffffffffffff1916827bffffffffffffffffffffffffffffffffffffffffffffffffffffffff191614806106ef57507f5b5e139f000000000000000000000000000000000000000000000000000000007bffffffffffffffffffffffffffffffffffffffffffffffffffffffff1916827bffffffffffffffffffffffffffffffffffffffffffffffffffffffff1916145b806106ff57506106fe82611a06565b5b9050919050565b60078054610713906132bc565b80601f016020809104026020016040519081016040528092919081815260200182805461073f906132bc565b801561078c5780601f106107615761010080835404028352916020019161078c565b820191906000526020600020905b81548152906001019060200180831161076f57829003601f168201915b505050505081565b6060600080546107a3906132bc565b80601f01602080910402602001604051908101604052809291908181526020018280546107cf906132bc565b801561081c5780601f106107f15761010080835404028352916020019161081c565b820191906000526020600020905b8154815290600101906020018083116107ff57829003601f168201915b5050505050905090565b600061083182611a70565b610870576040517f08c379a000000000000000000000000000000000000000000000000000000000815260040161086790612f55565b60405180910390fd5b6004600083815260200190815260200160002060009054906101000a900473ffffffffffffffffffffffffffffffffffffffff169050919050565b60006108b6826111af565b90508073ffffffffffffffffffffffffffffffffffffffff168373ffffffffffffffffffffffffffffffffffffffff161415610927576040517f08c379a000000000000000000000000000000000000000000000000000000000815260040161091e90612fd5565b60405180910390fd5b8073ffffffffffffffffffffffffffffffffffffffff16610946611adc565b73ffffffffffffffffffffffffffffffffffffffff16148061097557506109748161096f611adc565b61187a565b5b6109b4576040517f08c379a00000000000000000000000000000000000000000000000000000000081526004016109ab90612ef5565b60405180910390fd5b6109be8383611ae4565b505050565b6109d46109ce611adc565b82611b9d565b610a13576040517f08c379a0000000000000000000000000000000000000000000000000000000008152600401610a0a90612ff5565b60405180910390fd5b610a1e838383611c7b565b505050565b6000600b8281548110610a5f577f4e487b7100000000000000000000000000000000000000000000000000000000600052603260045260246000fd5b90600052602060002090600302016002015490506000600b8381548110610aaf577f4e487b7100000000000000000000000000000000000000000000000000000000600052603260045260246000fd5b906000526020600020906003020160010160009054906101000a900473ffffffffffffffffffffffffffffffffffffffff169050813414610b25576040517f08c379a0000000000000000000000000000000000000000000000000000000008152600401610b1c90612f75565b60405180910390fd5b6000600b8481548110610b61577f4e487b7100000000000000000000000000000000000000000000000000000000600052603260045260246000fd5b906000526020600020906003020160010160006101000a81548173ffffffffffffffffffffffffffffffffffffffff021916908373ffffffffffffffffffffffffffffffffffffffff160217905550610bbb303385611c7b565b600960009054906101000a900473ffffffffffffffffffffffffffffffffffffffff1673ffffffffffffffffffffffffffffffffffffffff166108fc600a549081150290604051600060405180830381858888f19350505050158015610c25573d6000803e3d6000fd5b508073ffffffffffffffffffffffffffffffffffffffff166108fc349081150290604051600060405180830381858888f19350505050158015610c6c573d6000803e3d6000fd5b508073ffffffffffffffffffffffffffffffffffffffff16837fd356b8423ef89ccba8e4f1dbeccc60b41825fd97d432f2e6a6dbd11ae6ecec113385604051610cb6929190612d6d565b60405180910390a3505050565b610cde838383604051806020016040528060008152506116dd565b505050565b600960009054906101000a900473ffffffffffffffffffffffffffffffffffffffff1681565b610d11611adc565b73ffffffffffffffffffffffffffffffffffffffff16610d2f61160b565b73ffffffffffffffffffffffffffffffffffffffff1614610d85576040517f08c379a0000000000000000000000000000000000000000000000000000000008152600401610d7c90612f95565b60405180910390fd5b80600a8190555050565b600b8181548110610d9f57600080fd5b90600052602060002090600302016000915090508060000154908060010160009054906101000a900473ffffffffffffffffffffffffffffffffffffffff16908060020154905083565b6060600080610df733611261565b905060008167ffffffffffffffff811115610e3b577f4e487b7100000000000000000000000000000000000000000000000000000000600052604160045260246000fd5b604051908082528060200260200182016040528015610e7457816020015b610e61612574565b815260200190600190039081610e595790505b50905060005b600b80549050811015610fe6573373ffffffffffffffffffffffffffffffffffffffff16610ea7826111af565b73ffffffffffffffffffffffffffffffffffffffff161415610fd357600b8181548110610efd577f4e487b7100000000000000000000000000000000000000000000000000000000600052603260045260246000fd5b9060005260206000209060030201604051806060016040529081600082015481526020016001820160009054906101000a900473ffffffffffffffffffffffffffffffffffffffff1673ffffffffffffffffffffffffffffffffffffffff1673ffffffffffffffffffffffffffffffffffffffff168152602001600282015481525050828581518110610fb9577f4e487b7100000000000000000000000000000000000000000000000000000000600052603260045260246000fd5b60200260200101819052508380610fcf9061331f565b9450505b8080610fde9061331f565b915050610e7a565b5080935050505090565b600a543414611034576040517f08c379a000000000000000000000000000000000000000000000000000000000815260040161102b90612e75565b60405180910390fd5b60008111611077576040517f08c379a000000000000000000000000000000000000000000000000000000000815260040161106e90612df5565b60405180910390fd5b80600b83815481106110b2577f4e487b7100000000000000000000000000000000000000000000000000000000600052603260045260246000fd5b90600052602060002090600302016002018190555033600b8381548110611102577f4e487b7100000000000000000000000000000000000000000000000000000000600052603260045260246000fd5b906000526020600020906003020160010160006101000a81548173ffffffffffffffffffffffffffffffffffffffff021916908373ffffffffffffffffffffffffffffffffffffffff16021790555061115c333084611c7b565b3373ffffffffffffffffffffffffffffffffffffffff16827fb2ba12d2566848b13548a3741edb565b69d3cbce7796959cd67431610207eb13836040516111a39190613015565b60405180910390a35050565b6000806002600084815260200190815260200160002060009054906101000a900473ffffffffffffffffffffffffffffffffffffffff169050600073ffffffffffffffffffffffffffffffffffffffff168173ffffffffffffffffffffffffffffffffffffffff161415611258576040517f08c379a000000000000000000000000000000000000000000000000000000000815260040161124f90612f35565b60405180910390fd5b80915050919050565b60008073ffffffffffffffffffffffffffffffffffffffff168273ffffffffffffffffffffffffffffffffffffffff1614156112d2576040517f08c379a00000000000000000000000000000000000000000000000000000000081526004016112c990612f15565b60405180910390fd5b600360008373ffffffffffffffffffffffffffffffffffffffff1673ffffffffffffffffffffffffffffffffffffffff168152602001908152602001600020549050919050565b611321611adc565b73ffffffffffffffffffffffffffffffffffffffff1661133f61160b565b73ffffffffffffffffffffffffffffffffffffffff1614611395576040517f08c379a000000000000000000000000000000000000000000000000000000000815260040161138c90612f95565b60405180910390fd5b61139f6000611ee2565b565b60606000806113af30611261565b905060008167ffffffffffffffff8111156113f3577f4e487b7100000000000000000000000000000000000000000000000000000000600052604160045260246000fd5b60405190808252806020026020018201604052801561142c57816020015b611419612574565b8152602001906001900390816114115790505b50905060005b600b8054905081101561160157600073ffffffffffffffffffffffffffffffffffffffff16600b8281548110611491577f4e487b7100000000000000000000000000000000000000000000000000000000600052603260045260246000fd5b906000526020600020906003020160010160009054906101000a900473ffffffffffffffffffffffffffffffffffffffff1673ffffffffffffffffffffffffffffffffffffffff16146115ee57600b8181548110611518577f4e487b7100000000000000000000000000000000000000000000000000000000600052603260045260246000fd5b9060005260206000209060030201604051806060016040529081600082015481526020016001820160009054906101000a900473ffffffffffffffffffffffffffffffffffffffff1673ffffffffffffffffffffffffffffffffffffffff1673ffffffffffffffffffffffffffffffffffffffff1681526020016002820154815250508285815181106115d4577f4e487b7100000000000000000000000000000000000000000000000000000000600052603260045260246000fd5b602002602001018190525083806115ea9061331f565b9450505b80806115f99061331f565b915050611432565b5080935050505090565b6000600660009054906101000a900473ffffffffffffffffffffffffffffffffffffffff16905090565b606060018054611644906132bc565b80601f0160208091040260200160405190810160405280929190818152602001828054611670906132bc565b80156116bd5780601f10611692576101008083540402835291602001916116bd565b820191906000526020600020905b8154815290600101906020018083116116a057829003601f168201915b5050505050905090565b6116d96116d2611adc565b8383611fa8565b5050565b6116ee6116e8611adc565b83611b9d565b61172d576040517f08c379a000000000000000000000000000000000000000000000000000000000815260040161172490612ff5565b60405180910390fd5b61173984848484612115565b50505050565b600a5481565b60088054611752906132bc565b80601f016020809104026020016040519081016040528092919081815260200182805461177e906132bc565b80156117cb5780601f106117a0576101008083540402835291602001916117cb565b820191906000526020600020905b8154815290600101906020018083116117ae57829003601f168201915b505050505081565b60606117de82611a70565b61181d576040517f08c379a000000000000000000000000000000000000000000000000000000000815260040161181490612fb5565b60405180910390fd5b6000611827612171565b905060008151116118475760405180602001604052806000815250611872565b8061185184612203565b604051602001611862929190612ce2565b6040516020818303038152906040525b915050919050565b6000600560008473ffffffffffffffffffffffffffffffffffffffff1673ffffffffffffffffffffffffffffffffffffffff16815260200190815260200160002060008373ffffffffffffffffffffffffffffffffffffffff1673ffffffffffffffffffffffffffffffffffffffff16815260200190815260200160002060009054906101000a900460ff16905092915050565b611916611adc565b73ffffffffffffffffffffffffffffffffffffffff1661193461160b565b73ffffffffffffffffffffffffffffffffffffffff161461198a576040517f08c379a000000000000000000000000000000000000000000000000000000000815260040161198190612f95565b60405180910390fd5b600073ffffffffffffffffffffffffffffffffffffffff168173ffffffffffffffffffffffffffffffffffffffff1614156119fa576040517f08c379a00000000000000000000000000000000000000000000000000000000081526004016119f190612e35565b60405180910390fd5b611a0381611ee2565b50565b60007f01ffc9a7000000000000000000000000000000000000000000000000000000007bffffffffffffffffffffffffffffffffffffffffffffffffffffffff1916827bffffffffffffffffffffffffffffffffffffffffffffffffffffffff1916149050919050565b60008073ffffffffffffffffffffffffffffffffffffffff166002600084815260200190815260200160002060009054906101000a900473ffffffffffffffffffffffffffffffffffffffff1673ffffffffffffffffffffffffffffffffffffffff1614159050919050565b600033905090565b816004600083815260200190815260200160002060006101000a81548173ffffffffffffffffffffffffffffffffffffffff021916908373ffffffffffffffffffffffffffffffffffffffff160217905550808273ffffffffffffffffffffffffffffffffffffffff16611b57836111af565b73ffffffffffffffffffffffffffffffffffffffff167f8c5be1e5ebec7d5bd14f71427d1e84f3dd0314c0f7b2291e5b200ac8c7c3b92560405160405180910390a45050565b6000611ba882611a70565b611be7576040517f08c379a0000000000000000000000000000000000000000000000000000000008152600401611bde90612ed5565b60405180910390fd5b6000611bf2836111af565b90508073ffffffffffffffffffffffffffffffffffffffff168473ffffffffffffffffffffffffffffffffffffffff161480611c6157508373ffffffffffffffffffffffffffffffffffffffff16611c4984610826565b73ffffffffffffffffffffffffffffffffffffffff16145b80611c725750611c71818561187a565b5b91505092915050565b8273ffffffffffffffffffffffffffffffffffffffff16611c9b826111af565b73ffffffffffffffffffffffffffffffffffffffff1614611cf1576040517f08c379a0000000000000000000000000000000000000000000000000000000008152600401611ce890612e55565b60405180910390fd5b600073ffffffffffffffffffffffffffffffffffffffff168273ffffffffffffffffffffffffffffffffffffffff161415611d61576040517f08c379a0000000000000000000000000000000000000000000000000000000008152600401611d5890612e95565b60405180910390fd5b611d6c8383836123b0565b611d77600082611ae4565b6001600360008573ffffffffffffffffffffffffffffffffffffffff1673ffffffffffffffffffffffffffffffffffffffff1681526020019081526020016000206000828254611dc791906131c0565b925050819055506001600360008473ffffffffffffffffffffffffffffffffffffffff1673ffffffffffffffffffffffffffffffffffffffff1681526020019081526020016000206000828254611e1e9190613139565b92505081905550816002600083815260200190815260200160002060006101000a81548173ffffffffffffffffffffffffffffffffffffffff021916908373ffffffffffffffffffffffffffffffffffffffff160217905550808273ffffffffffffffffffffffffffffffffffffffff168473ffffffffffffffffffffffffffffffffffffffff167fddf252ad1be2c89b69c2b068fc378daa952ba7f163c4a11628f55a4df523b3ef60405160405180910390a4611edd8383836123b5565b505050565b6000600660009054906101000a900473ffffffffffffffffffffffffffffffffffffffff16905081600660006101000a81548173ffffffffffffffffffffffffffffffffffffffff021916908373ffffffffffffffffffffffffffffffffffffffff1602179055508173ffffffffffffffffffffffffffffffffffffffff168173ffffffffffffffffffffffffffffffffffffffff167f8be0079c531659141344cd1fd0a4f28419497f9722a3daafe3b4186f6b6457e060405160405180910390a35050565b8173ffffffffffffffffffffffffffffffffffffffff168373ffffffffffffffffffffffffffffffffffffffff161415612017576040517f08c379a000000000000000000000000000000000000000000000000000000000815260040161200e90612eb5565b60405180910390fd5b80600560008573ffffffffffffffffffffffffffffffffffffffff1673ffffffffffffffffffffffffffffffffffffffff16815260200190815260200160002060008473ffffffffffffffffffffffffffffffffffffffff1673ffffffffffffffffffffffffffffffffffffffff16815260200190815260200160002060006101000a81548160ff0219169083151502179055508173ffffffffffffffffffffffffffffffffffffffff168373ffffffffffffffffffffffffffffffffffffffff167f17307eab39ab6107e8899845ad3d59bd9653f200f220920489ca2b5937696c31836040516121089190612db8565b60405180910390a3505050565b612120848484611c7b565b61212c848484846123ba565b61216b576040517f08c379a000000000000000000000000000000000000000000000000000000000815260040161216290612e15565b60405180910390fd5b50505050565b606060078054612180906132bc565b80601f01602080910402602001604051908101604052809291908181526020018280546121ac906132bc565b80156121f95780601f106121ce576101008083540402835291602001916121f9565b820191906000526020600020905b8154815290600101906020018083116121dc57829003601f168201915b5050505050905090565b6060600082141561224b576040518060400160405280600181526020017f300000000000000000000000000000000000000000000000000000000000000081525090506123ab565b600082905060005b6000821461227d5780806122669061331f565b915050600a82612276919061318f565b9150612253565b60008167ffffffffffffffff8111156122bf577f4e487b7100000000000000000000000000000000000000000000000000000000600052604160045260246000fd5b6040519080825280601f01601f1916602001820160405280156122f15781602001600182028036833780820191505090505b5090505b600085146123a45760018261230a91906131c0565b9150600a856123199190613368565b60306123259190613139565b60f81b818381518110612361577f4e487b7100000000000000000000000000000000000000000000000000000000600052603260045260246000fd5b60200101907effffffffffffffffffffffffffffffffffffffffffffffffffffffffffffff1916908160001a905350600a8561239d919061318f565b94506122f5565b8093505050505b919050565b505050565b505050565b60006123db8473ffffffffffffffffffffffffffffffffffffffff16612551565b15612544578373ffffffffffffffffffffffffffffffffffffffff1663150b7a02612404611adc565b8786866040518563ffffffff1660e01b81526004016124269493929190612d21565b602060405180830381600087803b15801561244057600080fd5b505af192505050801561247157506040513d601f19601f8201168201806040525081019061246e919061284c565b60015b6124f4573d80600081146124a1576040519150601f19603f3d011682016040523d82523d6000602084013e6124a6565b606091505b506000815114156124ec576040517f08c379a00000000000000000000000000000000000000000000000000000000081526004016124e390612e15565b60405180910390fd5b805181602001fd5b63150b7a0260e01b7bffffffffffffffffffffffffffffffffffffffffffffffffffffffff1916817bffffffffffffffffffffffffffffffffffffffffffffffffffffffff191614915050612549565b600190505b949350505050565b6000808273ffffffffffffffffffffffffffffffffffffffff163b119050919050565b604051806060016040528060008152602001600073ffffffffffffffffffffffffffffffffffffffff168152602001600081525090565b60006125be6125b98461308c565b613067565b9050828152602081018484840111156125d657600080fd5b6125e184828561327a565b509392505050565b6000813590506125f881613933565b92915050565b60008135905061260d8161394a565b92915050565b60008135905061262281613961565b92915050565b60008151905061263781613961565b92915050565b600082601f83011261264e57600080fd5b813561265e8482602086016125ab565b91505092915050565b60008135905061267681613978565b92915050565b60006020828403121561268e57600080fd5b600061269c848285016125e9565b91505092915050565b600080604083850312156126b857600080fd5b60006126c6858286016125e9565b92505060206126d7858286016125e9565b9150509250929050565b6000806000606084860312156126f657600080fd5b6000612704868287016125e9565b9350506020612715868287016125e9565b925050604061272686828701612667565b9150509250925092565b6000806000806080858703121561274657600080fd5b6000612754878288016125e9565b9450506020612765878288016125e9565b935050604061277687828801612667565b925050606085013567ffffffffffffffff81111561279357600080fd5b61279f8782880161263d565b91505092959194509250565b600080604083850312156127be57600080fd5b60006127cc858286016125e9565b92505060206127dd858286016125fe565b9150509250929050565b600080604083850312156127fa57600080fd5b6000612808858286016125e9565b925050602061281985828601612667565b9150509250929050565b60006020828403121561283557600080fd5b600061284384828501612613565b91505092915050565b60006020828403121561285e57600080fd5b600061286c84828501612628565b91505092915050565b60006020828403121561288757600080fd5b600061289584828501612667565b91505092915050565b600080604083850312156128b157600080fd5b60006128bf85828601612667565b92505060206128d085828601612667565b9150509250929050565b60006128e68383612c82565b60608301905092915050565b6128fb81613206565b82525050565b61290a81613206565b82525050565b612919816131f4565b82525050565b600061292a826130cd565b61293481856130fb565b935061293f836130bd565b8060005b8381101561297057815161295788826128da565b9750612962836130ee565b925050600181019050612943565b5085935050505092915050565b61298681613218565b82525050565b6000612997826130d8565b6129a1818561310c565b93506129b1818560208601613289565b6129ba81613455565b840191505092915050565b60006129d0826130e3565b6129da818561311d565b93506129ea818560208601613289565b6129f381613455565b840191505092915050565b6000612a09826130e3565b612a13818561312e565b9350612a23818560208601613289565b80840191505092915050565b6000612a3c601f8361311d565b9150612a4782613466565b602082019050919050565b6000612a5f60328361311d565b9150612a6a8261348f565b604082019050919050565b6000612a8260268361311d565b9150612a8d826134de565b604082019050919050565b6000612aa560258361311d565b9150612ab08261352d565b604082019050919050565b6000612ac860108361311d565b9150612ad38261357c565b602082019050919050565b6000612aeb60248361311d565b9150612af6826135a5565b604082019050919050565b6000612b0e60198361311d565b9150612b19826135f4565b602082019050919050565b6000612b31602c8361311d565b9150612b3c8261361d565b604082019050919050565b6000612b5460388361311d565b9150612b5f8261366c565b604082019050919050565b6000612b77602a8361311d565b9150612b82826136bb565b604082019050919050565b6000612b9a60298361311d565b9150612ba58261370a565b604082019050919050565b6000612bbd602c8361311d565b9150612bc882613759565b604082019050919050565b6000612be060418361311d565b9150612beb826137a8565b606082019050919050565b6000612c0360208361311d565b9150612c0e8261381d565b602082019050919050565b6000612c26602f8361311d565b9150612c3182613846565b604082019050919050565b6000612c4960218361311d565b9150612c5482613895565b604082019050919050565b6000612c6c60318361311d565b9150612c77826138e4565b604082019050919050565b606082016000820151612c986000850182612cc4565b506020820151612cab60208501826128f2565b506040820151612cbe6040850182612cc4565b50505050565b612ccd81613270565b82525050565b612cdc81613270565b82525050565b6000612cee82856129fe565b9150612cfa82846129fe565b91508190509392505050565b6000602082019050612d1b6000830184612910565b92915050565b6000608082019050612d366000830187612910565b612d436020830186612910565b612d506040830185612cd3565b8181036060830152612d62818461298c565b905095945050505050565b6000604082019050612d826000830185612910565b612d8f6020830184612cd3565b9392505050565b60006020820190508181036000830152612db0818461291f565b905092915050565b6000602082019050612dcd600083018461297d565b92915050565b60006020820190508181036000830152612ded81846129c5565b905092915050565b60006020820190508181036000830152612e0e81612a2f565b9050919050565b60006020820190508181036000830152612e2e81612a52565b9050919050565b60006020820190508181036000830152612e4e81612a75565b9050919050565b60006020820190508181036000830152612e6e81612a98565b9050919050565b60006020820190508181036000830152612e8e81612abb565b9050919050565b60006020820190508181036000830152612eae81612ade565b9050919050565b60006020820190508181036000830152612ece81612b01565b9050919050565b60006020820190508181036000830152612eee81612b24565b9050919050565b60006020820190508181036000830152612f0e81612b47565b9050919050565b60006020820190508181036000830152612f2e81612b6a565b9050919050565b60006020820190508181036000830152612f4e81612b8d565b9050919050565b60006020820190508181036000830152612f6e81612bb0565b9050919050565b60006020820190508181036000830152612f8e81612bd3565b9050919050565b60006020820190508181036000830152612fae81612bf6565b9050919050565b60006020820190508181036000830152612fce81612c19565b9050919050565b60006020820190508181036000830152612fee81612c3c565b9050919050565b6000602082019050818103600083015261300e81612c5f565b9050919050565b600060208201905061302a6000830184612cd3565b92915050565b60006060820190506130456000830186612cd3565b6130526020830185612901565b61305f6040830184612cd3565b949350505050565b6000613071613082565b905061307d82826132ee565b919050565b6000604051905090565b600067ffffffffffffffff8211156130a7576130a6613426565b5b6130b082613455565b9050602081019050919050565b6000819050602082019050919050565b600081519050919050565b600081519050919050565b600081519050919050565b6000602082019050919050565b600082825260208201905092915050565b600082825260208201905092915050565b600082825260208201905092915050565b600081905092915050565b600061314482613270565b915061314f83613270565b9250827fffffffffffffffffffffffffffffffffffffffffffffffffffffffffffffffff0382111561318457613183613399565b5b828201905092915050565b600061319a82613270565b91506131a583613270565b9250826131b5576131b46133c8565b5b828204905092915050565b60006131cb82613270565b91506131d683613270565b9250828210156131e9576131e8613399565b5b828203905092915050565b60006131ff82613250565b9050919050565b600061321182613250565b9050919050565b60008115159050919050565b60007fffffffff0000000000000000000000000000000000000000000000000000000082169050919050565b600073ffffffffffffffffffffffffffffffffffffffff82169050919050565b6000819050919050565b82818337600083830152505050565b60005b838110156132a757808201518184015260208101905061328c565b838111156132b6576000848401525b50505050565b600060028204905060018216806132d457607f821691505b602082108114156132e8576132e76133f7565b5b50919050565b6132f782613455565b810181811067ffffffffffffffff8211171561331657613315613426565b5b80604052505050565b600061332a82613270565b91507fffffffffffffffffffffffffffffffffffffffffffffffffffffffffffffffff82141561335d5761335c613399565b5b600182019050919050565b600061337382613270565b915061337e83613270565b92508261338e5761338d6133c8565b5b828206905092915050565b7f4e487b7100000000000000000000000000000000000000000000000000000000600052601160045260246000fd5b7f4e487b7100000000000000000000000000000000000000000000000000000000600052601260045260246000fd5b7f4e487b7100000000000000000000000000000000000000000000000000000000600052602260045260246000fd5b7f4e487b7100000000000000000000000000000000000000000000000000000000600052604160045260246000fd5b6000601f19601f8301169050919050565b7f5072696365206d7573742062652067726561746572207468616e207a65726f00600082015250565b7f4552433732313a207472616e7366657220746f206e6f6e20455243373231526560008201527f63656976657220696d706c656d656e7465720000000000000000000000000000602082015250565b7f4f776e61626c653a206e6577206f776e657220697320746865207a65726f206160008201527f6464726573730000000000000000000000000000000000000000000000000000602082015250565b7f4552433732313a207472616e736665722066726f6d20696e636f72726563742060008201527f6f776e6572000000000000000000000000000000000000000000000000000000602082015250565b7f4d7573742070617920726f79616c747900000000000000000000000000000000600082015250565b7f4552433732313a207472616e7366657220746f20746865207a65726f2061646460008201527f7265737300000000000000000000000000000000000000000000000000000000602082015250565b7f4552433732313a20617070726f766520746f2063616c6c657200000000000000600082015250565b7f4552433732313a206f70657261746f7220717565727920666f72206e6f6e657860008201527f697374656e7420746f6b656e0000000000000000000000000000000000000000602082015250565b7f4552433732313a20617070726f76652063616c6c6572206973206e6f74206f7760008201527f6e6572206e6f7220617070726f76656420666f7220616c6c0000000000000000602082015250565b7f4552433732313a2062616c616e636520717565727920666f7220746865207a6560008201527f726f206164647265737300000000000000000000000000000000000000000000602082015250565b7f4552433732313a206f776e657220717565727920666f72206e6f6e657869737460008201527f656e7420746f6b656e0000000000000000000000000000000000000000000000602082015250565b7f4552433732313a20617070726f76656420717565727920666f72206e6f6e657860008201527f697374656e7420746f6b656e0000000000000000000000000000000000000000602082015250565b7f506c656173652073656e64207468652061736b696e6720707269636520696e2060008201527f6f7264657220746f20636f6d706c65746520746865207472616e73616374696f60208201527f6e00000000000000000000000000000000000000000000000000000000000000604082015250565b7f4f776e61626c653a2063616c6c6572206973206e6f7420746865206f776e6572600082015250565b7f4552433732314d657461646174613a2055524920717565727920666f72206e6f60008201527f6e6578697374656e7420746f6b656e0000000000000000000000000000000000602082015250565b7f4552433732313a20617070726f76616c20746f2063757272656e74206f776e6560008201527f7200000000000000000000000000000000000000000000000000000000000000602082015250565b7f4552433732313a207472616e736665722063616c6c6572206973206e6f74206f60008201527f776e6572206e6f7220617070726f766564000000000000000000000000000000602082015250565b61393c816131f4565b811461394757600080fd5b50565b61395381613218565b811461395e57600080fd5b50565b61396a81613224565b811461397557600080fd5b50565b61398181613270565b811461398c57600080fd5b5056fea26469706673582212203d4caa28c5acea94053392b309befbee9dadb34113b6dfa4e533c2d09b3a978e64736f6c6343000804003368747470733a2f2f62616679626569687a6c6e707637657135693575746b6d6337786575623367767a737a6a697175366a763572706264686934326e696566623664752e697066732e6e667473746f726167652e6c696e6b2f",
  "linkReferences": {},
  "deployedLinkReferences": {}
}